:100000000C9463000C948B000C948B000C944D04A6
:100010000C944D040C944D040C948B000C948B00A8
:100020000C948B000C948B000C948B000C948B0024
:100030000C948B000C948B000C948B000C948B0014
:100040000C9403040C948B000C94D1030C94AB031C
:100050000C948B000C948B000C948B000C948B00F4
:100060000C948B000C948B000000000024002700EF
:100070002A0000000008000201000003040700003D
:1000800000000000000000000000250028002B00F8
:1000900000000000230026002900040404040404D6
:1000A0000404020202020202030303030303010227
:1000B00004081020408001020408102001020408F6
:1000C0001020C704450811241FBECFEFD8E0DEBFC3
:1000D000CDBF11E0A0E0B1E0E4EDF1E102C0059098
:1000E0000D92A638B107D9F722E0A6E8B1E001C029
:1000F0001D92AF39B207E1F710E0C2E6D0E004C0CC
:100100002197FE010E94D208C136D107C9F70E948B
:1001100072050C94DD080C940000CF92DF92EF92F0
:10012000FF920F931F93CF93DF936C017A018B01A2
:10013000C0E0D0E0CE15DF0589F0D8016D918D01CA
:10014000D601ED91FC910190F081E02DC601099559
:10015000892B11F47E0102C02196ECCFC701DF91FB
:10016000CF911F910F91FF90EF90DF90CF90089566
:10017000FC01538D448D252F30E0842F90E0821BAD
:10018000930B541710F0CF96089501970895FC0132
:10019000918D828D981761F0828DDF01A80FB11DBE
:1001A0005D968C91928D9F5F9F73928F90E00895E2
:1001B0008FEF9FEF0895FC01918D828D981731F09C
:1001C000828DE80FF11D858D90E008958FEF9FEFF0
:1001D0000895FC01918D228D892F90E0805C9F4FC6
:1001E000821B91098F739927089583EE91E00E94F5
:1001F000E90021E0892B09F420E0822F0895FC0119
:10020000848DDF01A80FB11DA35ABF4F2C91848D9F
:1002100090E001968F739927848FA689B7892C93D4
:10022000A089B1898C9180648C93938D848D98136F
:1002300006C00288F389E02D80818F7D8083089538
:10024000EF92FF920F931F93CF93DF93EC0181E026
:10025000888F9B8D8C8D981305C0E889F9898081E2
:1002600085FD24C0F62E0B8D10E00F5F1F4F0F731E
:100270001127E02E8C8DE8120CC00FB607FCFACFC8
:10028000E889F989808185FFF5CFCE010E94FF00C2
:10029000F1CF8B8DFE01E80FF11DE35AFF4FF08285
:1002A0000B8FEA89FB898081806207C0EE89FF8914
:1002B0006083E889F98980818064808381E090E0AF
:1002C000DF91CF911F910F91FF90EF900895CF9301
:1002D000DF93EC01888D8823C9F0EA89FB8980814E
:1002E00085FD05C0A889B9898C9186FD0FC00FB620
:1002F00007FCF5CF808185FFF2CFA889B9898C9161
:1003000085FFEDCFCE010E94FF00E7CFDF91CF91B7
:10031000089580E090E0892B29F00E94F50081117A
:100320000C9400000895833081F028F4813099F016
:100330008230A1F008958730A9F08830B9F0843078
:10034000D1F4809180008F7D03C0809180008F77F1
:1003500080938000089584B58F7702C084B58F7D27
:1003600084BD08958091B0008F7703C08091B00064
:100370008F7D8093B0000895CF93DF93282F30E0D6
:10038000F901EE58FF4F8491F901E255FF4FD491E6
:10039000F901E656FF4FC491CC2391F081110E94E0
:1003A0009301EC2FF0E0EE0FFF1FE057FF4FA591F8
:1003B000B491EC91ED2381E090E021F480E002C063
:1003C00080E090E0DF91CF9108951F93CF93DF936A
:1003D000282F30E0F901EE58FF4F8491F901E255E2
:1003E000FF4FD491F901E656FF4FC491CC23C9F0D9
:1003F000162F81110E949301EC2FF0E0EE0FFF1FEA
:10040000EA57FF4FA591B4918FB7F894111105C029
:100410009C91ED2FE095E92302C0EC91ED2BEC933C
:100420008FBFDF91CF911F910895CF93DF9390E01D
:10043000FC01E255FF4F2491FC01E656FF4F8491E9
:10044000882361F190E0880F991FFC01E859FF4F64
:10045000C591D491FC01EA57FF4FA591B491611168
:1004600009C09FB7F8948881209582238883EC91F6
:100470002E230BC0623061F49FB7F8943881822F2D
:10048000809583238883EC912E2B2C939FBF06C0ED
:100490008FB7F894E8812E2B28838FBFDF91CF91FF
:1004A00008958E3008F08E508770806480937C00B1
:1004B00080917A00806480937A0080917A0086FD32
:1004C000FCCF809178002091790090E0922B0895E4
:1004D0003FB7F8948091CB019091CC01A091CD01D0
:1004E000B091CE0126B5A89B05C02F3F19F001960B
:1004F000A11DB11D3FBFBA2FA92F982F8827820FAA
:10050000911DA11DB11DBC01CD0142E0660F771FF9
:10051000881F991F4A95D1F708958F929F92AF92A5
:10052000BF92CF92DF92EF92FF926B017C010E940B
:1005300068024B015C01C114D104E104F104F1F043
:100540000E946802DC01CB0188199909AA09BB093C
:10055000883E9340A105B10570F321E0C21AD1088D
:10056000E108F10888EE880E83E0981EA11CB11CFA
:10057000C114D104E104F10419F7DDCFFF90EF902D
:10058000DF90CF90BF90AF909F908F900895209173
:10059000D1013091D2012817390771F49091CF0120
:1005A0008091D001981741F0E091CF01F0E0EA5737
:1005B000FE4F808190E008958FEF9FEF089508959A
:1005C0001F93CF93DF93DC015C962D913C915D9757
:1005D0002115310539F481E090E013969C938E93B8
:1005E00012973DC05196ED91FC91529750969C9177
:1005F0005097892F80951FB75E964C915E9741FB6F
:10060000772770F941FD6095F8944081772311F0C8
:10061000492B01C048234083E9012197F1F748E0C5
:10062000508160FF02C0592B01C058235083E9015B
:100630002197F1F76695415099F7772321F0908142
:100640008923808303C08081982B90831FBF5C9691
:100650008D919C915D970197F1F721E030E0C90100
:10066000DF91CF911F9108952091D1013091D20156
:100670002817390771F48091D0012091CF0190E0C3
:10068000805C9F4F821B910960E470E00E94AA0881
:10069000089580E090E008952091D1013091D20139
:1006A00028173907B9F49091CF018091D00198179C
:1006B00089F0E091CF01F0E0EA57FE4F8081209170
:1006C000CF0130E02F5F3F4F2F7333272093CF01AF
:1006D00090E008958FEF9FEF0895E091D101F091A0
:1006E000D201E817F90769F4A389B4899C91858937
:1006F000809589238C931092D2011092D10181E0D0
:10070000089580E00895089580E090E00895CF93E3
:10071000DF93009779F0FC0101900020E9F7319711
:10072000AF01481B590BBC0180E892E00E948D008C
:10073000EC0102C0C0E0D0E042E050E064E271E0D1
:1007400080E892E00E948D008C0F9D1FDF91CF9179
:1007500008950E94D8081F920F920FB60F9211248D
:100760002F933F934F935F936F937F938F939F93B9
:10077000AF93BF93EF93FF9383EE91E00E94FF004E
:10078000FF91EF91BF91AF919F918F917F916F9169
:100790005F914F913F912F910F900FBE0F901F903F
:1007A00018951F920F920FB60F9211242F938F93CB
:1007B0009F93EF93FF93E091F301F091F401808117
:1007C000E091F901F091FA0182FD12C090818091CF
:1007D000FC018F5F8F732091FD01821751F0E09132
:1007E000FC01F0E0ED51FE4F958F8093FC0101C0BC
:1007F0008081FF91EF919F918F912F910F900FBE6C
:100800000F901F9018951F920F920FB60F92112400
:100810002F933F938F939F93AF93BF938091C70183
:100820009091C801A091C901B091CA013091C6014F
:1008300023E0230F2D3720F40196A11DB11D05C023
:1008400026E8230F0296A11DB11D2093C6018093B7
:10085000C7019093C801A093C901B093CA018091C8
:10086000CB019091CC01A091CD01B091CE01019628
:10087000A11DB11D8093CB019093CC01A093CD011C
:10088000B093CE01BF91AF919F918F913F912F91E6
:100890000F900FBE0F901F9018951F920F920FB6DA
:1008A0000F9211242F933F934F935F936F937F93F6
:1008B0008F939F93AF93BF93EF93FF93E091D101F9
:1008C000F091D201309709F451C0968DA685B78575
:1008D000858591FF04C09C91892329F447C09C9190
:1008E000892309F043C0A389B4899C9185898095A7
:1008F00089238C93868997890197F1F7608D718D93
:10090000A685B785558538E020E0CB010197F1F742
:10091000822F90E095958795282F4C91452309F0DB
:100920002068315091F7868D81FD20958091D0010E
:1009300090E001968F7399273091CF01381749F0D5
:10094000A091D001B0E0AA57BE4F2C938093D00164
:1009500003C0868D8160868F828D938D0197F1F71C
:10096000A389B4899C918589892B8C93FF91EF9100
:10097000BF91AF919F918F917F916F915F914F91B7
:100980003F912F910F900FBE0F901F9018951092CE
:10099000E6011092E50188EE93E0A0E0B0E08093DC
:1009A000E7019093E801A093E901B093EA0124E004
:1009B00031E03093E4012093E30125EC30E0309303
:1009C000F0012093EF0124EC30E03093F20120930A
:1009D000F10120EC30E03093F4012093F30121EC9D
:1009E00030E03093F6012093F50122EC30E03093B3
:1009F000F8012093F70126EC30E03093FA012093C0
:100A0000F9011092FC011092FD011092FE0110926A
:100A1000FF011092830210928202809384029093CD
:100A20008502A0938602B093870286E191E09093BD
:100A30008102809380021092970210929602109287
:100A400099021092980210929B0210929A021092B0
:100A50009D0210929C0260919E026E7F6D7F60935A
:100A60009E026695617081E0682782E00E94E50140
:100A700061E082E00E941502E0EBF0E0E491E09397
:100A80009002ECE9F0E0E491F0E0EE0FFF1FEA578E
:100A9000FF4F85919491909392028093910260E030
:100AA00083E00E94150280919E0281FD04C061E0F6
:100AB00083E00E94E50183E080938C02E1EBF0E0AB
:100AC000E491E0938D02EDE9F0E0E491F0E0EE0FC7
:100AD000FF1FE057FF4F8591949190938F02809371
:100AE0008E020895789484B5826084BD84B5816057
:100AF00084BD85B5826085BD85B5816085BD8091E9
:100B00006E00816080936E00109281008091810060
:100B10008260809381008091810081608093810058
:100B2000809180008160809380008091B10084601A
:100B30008093B1008091B00081608093B00080917B
:100B40007A00846080937A0080917A00826080933A
:100B50007A0080917A00816080937A0080917A0097
:100B6000806880937A001092C100E091F301F091C7
:100B7000F40182E08083E091EF01F091F0011082B6
:100B8000E091F101F091F2018FEC80831092FB0172
:100B9000E091F701F091F80186E08083E091F501A2
:100BA000F091F601808180618083E091F501F09100
:100BB000F601808188608083E091F501F091F60173
:100BC000808180688083E091F501F091F601808159
:100BD0008F7D808310929B0210929A02109299024C
:100BE0001092980210929702109296028DE991E06D
:100BF00090939D0280939C0290918C02963108F014
:100C000057C02DEB30E030939702209396022BE9EA
:100C100031E030939902209398022CE231E0309336
:100C20009B0220939A0220916800983050F031E0A6
:100C30009E3008F430E081E001C0880F3A95EAF771
:100C400001C084E0822B80936800983038F09E3099
:100C500040F0963148F020E030E008C02DE630E06A
:100C600005C02BE630E002C02CE630E03093940261
:100C700020939302983030F481E001C0880F9A9558
:100C8000EAF70EC0292F30E09E3018F428503109C1
:100C900002C02E50310981E001C0880F2A95EAF781
:100CA0008093950280919C0290919D020197F1F7AB
:100CB00080919A0290919B02892B21F18091D10120
:100CC0009091D20122E080389207E1F0009711F074
:100CD0000E946D0380919E028E7F80939E021092EF
:100CE000D0011092CF0180E892E09093D2018093DE
:100CF000D101E0919302F09194029081809195024C
:100D0000892B808361E08DE00E94150261E08BE019
:100D10000E94150261E08CE00E94150261E08CE007
:100D20000E94E50160E08AE00E94150260E08DE02B
:100D30000E94E50160E08BE00E94E50161E08DE04A
:100D40000E94E501C1E0D0E08EE00E9451027C01EA
:100D50008FE00E9451028C0180E10E9451025C01EF
:100D600081E10E94510282E10E9451021C01C701EF
:100D7000FF0CAA0BBB0B9C01AD01245F3140410964
:100D80005109A9E0B0E00E946E0820E530E040E0A3
:100D900050E00E944F0829013A01C801110FAA0B27
:100DA000BB0B9C01AD012C5B324041095109A9E00C
:100DB000B0E00E946E0820E530E040E050E00E9484
:100DC0004F0869017A01C501BB0CAA0BBB0B9C0142
:100DD000AD012752314041095109A9E0B0E00E941C
:100DE0006E082DE230E040E050E00E944F084901DB
:100DF0005A01C101330CAA0BBB0B9C01AD012D5153
:100E0000314041095109A9E0B0E00E946E082BE48D
:100E100030E040E050E00E944F0883E04816510463
:100E200061047104CCF584E0C816D104E104F10436
:100E300004F588E088169104A104B10454F026302A
:100E40003105410551052CF0D093E201C093E10139
:100E500038C088E088169104A104B104BCF02630A3
:100E600031054105510594F4D093DE01C093DD01B5
:100E700028C088E0C816D104E104F1043CF088E001
:100E800088169104A104B1040CF0F4C082E0481665
:100E9000510461047104ACF087E0C816D104E10488
:100EA000F1047CF088E088169104A104B1044CF0B0
:100EB000233031054105510524F0D093DC01C09366
:100EC000DB018091E1019091E2012091D901309103
:100ED000DA018217930791F0019781F487E291E09C
:100EE0000E9487031092E0011092DF011092DE0150
:100EF0001092DD011092DC011092DB018091E10182
:100F00009091E2019093DA018093D9018091DF0101
:100F10009091E0012091D7013091D8018217930779
:100F200091F0019781F48DE591E00E948703109282
:100F3000E2011092E1011092DE011092DD011092A7
:100F4000DC011092DB018091DF019091E001909330
:100F5000D8018093D7018091DD019091DE0120912D
:100F6000D5013091D6018217930791F0019781F452
:100F700088E691E00E9487031092E2011092E1015D
:100F80001092E0011092DF011092DC011092DB015F
:100F90008091DD019091DE019093D6018093D5017F
:100FA0008091DB019091DC012091D3013091D4013B
:100FB0008217930791F0019781F48CE791E00E94EA
:100FC00087031092E2011092E1011092E001109269
:100FD000DF011092DE011092DD018091DB01909122
:100FE000DC019093D4018093D3018AE00E94BC017C
:100FF000019719F18AE00E94BC010197F1F080E8A5
:1010000092E00E943403892B79F080E892E00E94FC
:101010004C03E091E301F091E4010190F081E02DB7
:10102000682F83EE91E0099568EE73E080E090E030
:101030000E948D020E94890187CE60E08CE00E94B0
:10104000E50164EF71E080E090E00E948D0261E0D4
:101050008CE00E94E50161E08BE00E94E50164EF15
:1010600071E080E090E00E948D0260E08BE00E94E1
:10107000E501C5CF26303105410551050CF406CFF9
:10108000D093E001C093DF011CCF86E191E0909303
:1010900081028093800280E892E00C946D03052E1B
:1010A00097FB1EF400940E94660857FD07D00E942B
:1010B000790807FC03D04EF40C94660850954095CF
:1010C000309521953F4F4F4F5F4F089590958095F4
:1010D000709561957F4F8F4F9F4F08950E949B0899
:1010E000A59F900DB49F900DA49F800D911D11247C
:1010F0000895A1E21A2EAA1BBB1BFD010DC0AA1F59
:10110000BB1FEE1FFF1FA217B307E407F50720F070
:10111000A21BB30BE40BF50B661F771F881F991FEB
:101120001A9469F760957095809590959B01AC0134
:10113000BD01CF010895A29FB001B39FC001A39F3D
:10114000700D811D1124911DB29F700D811D112400
:10115000911D089597FB072E16F4009407D077FD94
:1011600009D00E94BE0807FC05D03EF490958195F9
:101170009F4F0895709561957F4F0895AA1BBB1BE3
:1011800051E107C0AA1FBB1FA617B70710F0A61B87
:10119000B70B881F991F5A95A9F780959095BC01A8
:1011A000CD010895EE0FFF1F0590F491E02D0994F5
:1011B00081E090E0F8940C94DD0810E0C2E6D0E005
:1011C00004C0FE010E94D2082196C336D107C9F798
:0411D000F894FFCFC1
:1011D4000000000020018D00B8006701E900C7008D
:1011E400DB0000000000E0028D008403DF02340312
:1011F4004C03C7020D0A004869206D79206E616DA9
:10120400652069732041726475696E6F204920619D
:101214006D20737065616B696E67207468726F7599
:10122400676820626C7565746F6F7468004920612B
:101234006D20736F727279005468616E6B20796FE0
:10124400752076657279206D7563680042656175F5
:06125400746966756C0070
:00000001FF
